{
  "_format": "hh-sol-artifact-1",
  "contractName": "LetCreateItFactory",
  "sourceName": "contracts/letcreateit.sol",
  "abi": [
    {
      "inputs": [],
      "stateMutability": "nonpayable",
      "type": "constructor"
    },
    {
      "anonymous": false,
      "inputs": [
        {
          "indexed": true,
          "internalType": "address",
          "name": "tokenAddress",
          "type": "address"
        },
        {
          "indexed": true,
          "internalType": "address",
          "name": "creator",
          "type": "address"
        },
        {
          "indexed": false,
          "internalType": "string",
          "name": "name",
          "type": "string"
        },
        {
          "indexed": false,
          "internalType": "string",
          "name": "symbol",
          "type": "string"
        }
      ],
      "name": "TokenCreated",
      "type": "event"
    },
    {
      "inputs": [
        {
          "internalType": "string",
          "name": "name",
          "type": "string"
        },
        {
          "internalType": "string",
          "name": "symbol",
          "type": "string"
        },
        {
          "internalType": "uint8",
          "name": "decimals",
          "type": "uint8"
        },
        {
          "internalType": "uint256",
          "name": "totalSupply",
          "type": "uint256"
        }
      ],
      "name": "createMemeToken",
      "outputs": [
        {
          "internalType": "address",
          "name": "",
          "type": "address"
        }
      ],
      "stateMutability": "payable",
      "type": "function"
    },
    {
      "inputs": [],
      "name": "owner",
      "outputs": [
        {
          "internalType": "address",
          "name": "",
          "type": "address"
        }
      ],
      "stateMutability": "view",
      "type": "function"
    },
    {
      "inputs": [
        {
          "internalType": "uint256",
          "name": "newFee",
          "type": "uint256"
        }
      ],
      "name": "updateServiceFee",
      "outputs": [],
      "stateMutability": "nonpayable",
      "type": "function"
    },
    {
      "inputs": [],
      "name": "withdrawFunds",
      "outputs": [],
      "stateMutability": "nonpayable",
      "type": "function"
    }
  ],
  "bytecode": "0x608060405267016345785d8a0000600155348015601b57600080fd5b50336000806101000a81548173ffffffffffffffffffffffffffffffffffffffff021916908373ffffffffffffffffffffffffffffffffffffffff1602179055506123df8061006b6000396000f3fe60806040526004361061003f5760003560e01c806324600fc3146100445780633136abc11461005b5780638da5cb5b1461008b578063ae4b7c26146100b6575b600080fd5b34801561005057600080fd5b506100596100df565b005b6100756004803603810190610070919061060a565b6101d6565b60405161008291906106ea565b60405180910390f35b34801561009757600080fd5b506100a0610335565b6040516100ad91906106ea565b60405180910390f35b3480156100c257600080fd5b506100dd60048036038101906100d89190610705565b610359565b005b60008054906101000a900473ffffffffffffffffffffffffffffffffffffffff1673ffffffffffffffffffffffffffffffffffffffff163373ffffffffffffffffffffffffffffffffffffffff161461016d576040517f08c379a00000000000000000000000000000000000000000000000000000000081526004016101649061078f565b60405180910390fd5b60008054906101000a900473ffffffffffffffffffffffffffffffffffffffff1673ffffffffffffffffffffffffffffffffffffffff166108fc479081150290604051600060405180830381858888f193505050501580156101d3573d6000803e3d6000fd5b50565b600060015434101561021d576040517f08c379a0000000000000000000000000000000000000000000000000000000008152600401610214906107fb565b60405180910390fd5b60008585858560405161022f90610434565b61023c94939291906108a7565b604051809103906000f080158015610258573d6000803e3d6000fd5b5090503373ffffffffffffffffffffffffffffffffffffffff168173ffffffffffffffffffffffffffffffffffffffff167fd5d05a8421149c74fd223cfc823befb883babf9bf0b0e4d6bf9c8fdb70e59bb488886040516102ba9291906108fa565b60405180910390a360008054906101000a900473ffffffffffffffffffffffffffffffffffffffff1673ffffffffffffffffffffffffffffffffffffffff166108fc349081150290604051600060405180830381858888f19350505050158015610328573d6000803e3d6000fd5b5080915050949350505050565b60008054906101000a900473ffffffffffffffffffffffffffffffffffffffff1681565b60008054906101000a900473ffffffffffffffffffffffffffffffffffffffff1673ffffffffffffffffffffffffffffffffffffffff163373ffffffffffffffffffffffffffffffffffffffff16146103e7576040517f08c379a00000000000000000000000000000000000000000000000000000000081526004016103de9061078f565b60405180910390fd5b6000811161042a576040517f08c379a0000000000000000000000000000000000000000000000000000000008152600401610421906109a3565b60405180910390fd5b8060018190555050565b6119e6806109c483390190565b6000604051905090565b600080fd5b600080fd5b600080fd5b600080fd5b6000601f19601f8301169050919050565b7f4e487b7100000000000000000000000000000000000000000000000000000000600052604160045260246000fd5b6104a88261045f565b810181811067ffffffffffffffff821117156104c7576104c6610470565b5b80604052505050565b60006104da610441565b90506104e6828261049f565b919050565b600067ffffffffffffffff82111561050657610505610470565b5b61050f8261045f565b9050602081019050919050565b82818337600083830152505050565b600061053e610539846104eb565b6104d0565b90508281526020810184848401111561055a5761055961045a565b5b61056584828561051c565b509392505050565b600082601f83011261058257610581610455565b5b813561059284826020860161052b565b91505092915050565b600060ff82169050919050565b6105b18161059b565b81146105bc57600080fd5b50565b6000813590506105ce816105a8565b92915050565b6000819050919050565b6105e7816105d4565b81146105f257600080fd5b50565b600081359050610604816105de565b92915050565b600080600080608085870312156106245761062361044b565b5b600085013567ffffffffffffffff81111561064257610641610450565b5b61064e8782880161056d565b945050602085013567ffffffffffffffff81111561066f5761066e610450565b5b61067b8782880161056d565b935050604061068c878288016105bf565b925050606061069d878288016105f5565b91505092959194509250565b600073ffffffffffffffffffffffffffffffffffffffff82169050919050565b60006106d4826106a9565b9050919050565b6106e4816106c9565b82525050565b60006020820190506106ff60008301846106db565b92915050565b60006020828403121561071b5761071a61044b565b5b6000610729848285016105f5565b91505092915050565b600082825260208201905092915050565b7f4e6f742074686520636f6e7472616374206f776e657200000000000000000000600082015250565b6000610779601683610732565b915061078482610743565b602082019050919050565b600060208201905081810360008301526107a88161076c565b9050919050565b7f496e73756666696369656e742073657276696365206665650000000000000000600082015250565b60006107e5601883610732565b91506107f0826107af565b602082019050919050565b60006020820190508181036000830152610814816107d8565b9050919050565b600081519050919050565b60005b83811015610844578082015181840152602081019050610829565b60008484015250505050565b600061085b8261081b565b6108658185610732565b9350610875818560208601610826565b61087e8161045f565b840191505092915050565b6108928161059b565b82525050565b6108a1816105d4565b82525050565b600060808201905081810360008301526108c18187610850565b905081810360208301526108d58186610850565b90506108e46040830185610889565b6108f16060830184610898565b95945050505050565b600060408201905081810360008301526109148185610850565b905081810360208301526109288184610850565b90509392505050565b7f5365727669636520666565206d7573742062652067726561746572207468616e60008201527f2030000000000000000000000000000000000000000000000000000000000000602082015250565b600061098d602283610732565b915061099882610931565b604082019050919050565b600060208201905081810360008301526109bc81610980565b905091905056fe608060405234801561001057600080fd5b506040516119e63803806119e68339818101604052810190610032919061051a565b8383816003908161004391906107d0565b50806004908161005391906107d0565b505050610080338360ff16600a61006a9190610a04565b836100759190610a4f565b61008960201b60201c565b50505050610b82565b600073ffffffffffffffffffffffffffffffffffffffff168273ffffffffffffffffffffffffffffffffffffffff16036100fb5760006040517fec442f050000000000000000000000000000000000000000000000000000000081526004016100f29190610ad2565b60405180910390fd5b61010d6000838361011160201b60201c565b5050565b600073ffffffffffffffffffffffffffffffffffffffff168373ffffffffffffffffffffffffffffffffffffffff16036101635780600260008282546101579190610aed565b92505081905550610236565b60008060008573ffffffffffffffffffffffffffffffffffffffff1673ffffffffffffffffffffffffffffffffffffffff168152602001908152602001600020549050818110156101ef578381836040517fe450d38c0000000000000000000000000000000000000000000000000000000081526004016101e693929190610b30565b60405180910390fd5b8181036000808673ffffffffffffffffffffffffffffffffffffffff1673ffffffffffffffffffffffffffffffffffffffff16815260200190815260200160002081905550505b600073ffffffffffffffffffffffffffffffffffffffff168273ffffffffffffffffffffffffffffffffffffffff160361027f57806002600082825403925050819055506102cc565b806000808473ffffffffffffffffffffffffffffffffffffffff1673ffffffffffffffffffffffffffffffffffffffff168152602001908152602001600020600082825401925050819055505b8173ffffffffffffffffffffffffffffffffffffffff168373ffffffffffffffffffffffffffffffffffffffff167fddf252ad1be2c89b69c2b068fc378daa952ba7f163c4a11628f55a4df523b3ef836040516103299190610b67565b60405180910390a3505050565b6000604051905090565b600080fd5b600080fd5b600080fd5b600080fd5b6000601f19601f8301169050919050565b7f4e487b7100000000000000000000000000000000000000000000000000000000600052604160045260246000fd5b61039d82610354565b810181811067ffffffffffffffff821117156103bc576103bb610365565b5b80604052505050565b60006103cf610336565b90506103db8282610394565b919050565b600067ffffffffffffffff8211156103fb576103fa610365565b5b61040482610354565b9050602081019050919050565b60005b8381101561042f578082015181840152602081019050610414565b60008484015250505050565b600061044e610449846103e0565b6103c5565b90508281526020810184848401111561046a5761046961034f565b5b610475848285610411565b509392505050565b600082601f8301126104925761049161034a565b5b81516104a284826020860161043b565b91505092915050565b600060ff82169050919050565b6104c1816104ab565b81146104cc57600080fd5b50565b6000815190506104de816104b8565b92915050565b6000819050919050565b6104f7816104e4565b811461050257600080fd5b50565b600081519050610514816104ee565b92915050565b6000806000806080858703121561053457610533610340565b5b600085015167ffffffffffffffff81111561055257610551610345565b5b61055e8782880161047d565b945050602085015167ffffffffffffffff81111561057f5761057e610345565b5b61058b8782880161047d565b935050604061059c878288016104cf565b92505060606105ad87828801610505565b91505092959194509250565b600081519050919050565b7f4e487b7100000000000000000000000000000000000000000000000000000000600052602260045260246000fd5b6000600282049050600182168061060b57607f821691505b60208210810361061e5761061d6105c4565b5b50919050565b60008190508160005260206000209050919050565b60006020601f8301049050919050565b600082821b905092915050565b6000600883026106867fffffffffffffffffffffffffffffffffffffffffffffffffffffffffffffffff82610649565b6106908683610649565b95508019841693508086168417925050509392505050565b6000819050919050565b60006106cd6106c86106c3846104e4565b6106a8565b6104e4565b9050919050565b6000819050919050565b6106e7836106b2565b6106fb6106f3826106d4565b848454610656565b825550505050565b600090565b610710610703565b61071b8184846106de565b505050565b5b8181101561073f57610734600082610708565b600181019050610721565b5050565b601f8211156107845761075581610624565b61075e84610639565b8101602085101561076d578190505b61078161077985610639565b830182610720565b50505b505050565b600082821c905092915050565b60006107a760001984600802610789565b1980831691505092915050565b60006107c08383610796565b9150826002028217905092915050565b6107d9826105b9565b67ffffffffffffffff8111156107f2576107f1610365565b5b6107fc82546105f3565b610807828285610743565b600060209050601f83116001811461083a5760008415610828578287015190505b61083285826107b4565b86555061089a565b601f19841661084886610624565b60005b828110156108705784890151825560018201915060208501945060208101905061084b565b8683101561088d5784890151610889601f891682610796565b8355505b6001600288020188555050505b505050505050565b7f4e487b7100000000000000000000000000000000000000000000000000000000600052601160045260246000fd5b60008160011c9050919050565b6000808291508390505b600185111561092857808604811115610904576109036108a2565b5b60018516156109135780820291505b8081029050610921856108d1565b94506108e8565b94509492505050565b60008261094157600190506109fd565b8161094f57600090506109fd565b8160018114610965576002811461096f5761099e565b60019150506109fd565b60ff841115610981576109806108a2565b5b8360020a915084821115610998576109976108a2565b5b506109fd565b5060208310610133831016604e8410600b84101617156109d35782820a9050838111156109ce576109cd6108a2565b5b6109fd565b6109e084848460016108de565b925090508184048111156109f7576109f66108a2565b5b81810290505b9392505050565b6000610a0f826104e4565b9150610a1a836104e4565b9250610a477fffffffffffffffffffffffffffffffffffffffffffffffffffffffffffffffff8484610931565b905092915050565b6000610a5a826104e4565b9150610a65836104e4565b9250828202610a73816104e4565b91508282048414831517610a8a57610a896108a2565b5b5092915050565b600073ffffffffffffffffffffffffffffffffffffffff82169050919050565b6000610abc82610a91565b9050919050565b610acc81610ab1565b82525050565b6000602082019050610ae76000830184610ac3565b92915050565b6000610af8826104e4565b9150610b03836104e4565b9250828201905080821115610b1b57610b1a6108a2565b5b92915050565b610b2a816104e4565b82525050565b6000606082019050610b456000830186610ac3565b610b526020830185610b21565b610b5f6040830184610b21565b949350505050565b6000602082019050610b7c6000830184610b21565b92915050565b610e5580610b916000396000f3fe608060405234801561001057600080fd5b50600436106100935760003560e01c8063313ce56711610066578063313ce5671461013457806370a082311461015257806395d89b4114610182578063a9059cbb146101a0578063dd62ed3e146101d057610093565b806306fdde0314610098578063095ea7b3146100b657806318160ddd146100e657806323b872dd14610104575b600080fd5b6100a0610200565b6040516100ad9190610aa9565b60405180910390f35b6100d060048036038101906100cb9190610b64565b610292565b6040516100dd9190610bbf565b60405180910390f35b6100ee6102b5565b6040516100fb9190610be9565b60405180910390f35b61011e60048036038101906101199190610c04565b6102bf565b60405161012b9190610bbf565b60405180910390f35b61013c6102ee565b6040516101499190610c73565b60405180910390f35b61016c60048036038101906101679190610c8e565b6102f7565b6040516101799190610be9565b60405180910390f35b61018a61033f565b6040516101979190610aa9565b60405180910390f35b6101ba60048036038101906101b59190610b64565b6103d1565b6040516101c79190610bbf565b60405180910390f35b6101ea60048036038101906101e59190610cbb565b6103f4565b6040516101f79190610be9565b60405180910390f35b60606003805461020f90610d2a565b80601f016020809104026020016040519081016040528092919081815260200182805461023b90610d2a565b80156102885780601f1061025d57610100808354040283529160200191610288565b820191906000526020600020905b81548152906001019060200180831161026b57829003601f168201915b5050505050905090565b60008061029d61047b565b90506102aa818585610483565b600191505092915050565b6000600254905090565b6000806102ca61047b565b90506102d7858285610495565b6102e2858585610529565b60019150509392505050565b60006012905090565b60008060008373ffffffffffffffffffffffffffffffffffffffff1673ffffffffffffffffffffffffffffffffffffffff168152602001908152602001600020549050919050565b60606004805461034e90610d2a565b80601f016020809104026020016040519081016040528092919081815260200182805461037a90610d2a565b80156103c75780601f1061039c576101008083540402835291602001916103c7565b820191906000526020600020905b8154815290600101906020018083116103aa57829003601f168201915b5050505050905090565b6000806103dc61047b565b90506103e9818585610529565b600191505092915050565b6000600160008473ffffffffffffffffffffffffffffffffffffffff1673ffffffffffffffffffffffffffffffffffffffff16815260200190815260200160002060008373ffffffffffffffffffffffffffffffffffffffff1673ffffffffffffffffffffffffffffffffffffffff16815260200190815260200160002054905092915050565b600033905090565b610490838383600161061d565b505050565b60006104a184846103f4565b90507fffffffffffffffffffffffffffffffffffffffffffffffffffffffffffffffff81146105235781811015610513578281836040517ffb8f41b200000000000000000000000000000000000000000000000000000000815260040161050a93929190610d6a565b60405180910390fd5b6105228484848403600061061d565b5b50505050565b600073ffffffffffffffffffffffffffffffffffffffff168373ffffffffffffffffffffffffffffffffffffffff160361059b5760006040517f96c6fd1e0000000000000000000000000000000000000000000000000000000081526004016105929190610da1565b60405180910390fd5b600073ffffffffffffffffffffffffffffffffffffffff168273ffffffffffffffffffffffffffffffffffffffff160361060d5760006040517fec442f050000000000000000000000000000000000000000000000000000000081526004016106049190610da1565b60405180910390fd5b6106188383836107f4565b505050565b600073ffffffffffffffffffffffffffffffffffffffff168473ffffffffffffffffffffffffffffffffffffffff160361068f5760006040517fe602df050000000000000000000000000000000000000000000000000000000081526004016106869190610da1565b60405180910390fd5b600073ffffffffffffffffffffffffffffffffffffffff168373ffffffffffffffffffffffffffffffffffffffff16036107015760006040517f94280d620000000000000000000000000000000000000000000000000000000081526004016106f89190610da1565b60405180910390fd5b81600160008673ffffffffffffffffffffffffffffffffffffffff1673ffffffffffffffffffffffffffffffffffffffff16815260200190815260200160002060008573ffffffffffffffffffffffffffffffffffffffff1673ffffffffffffffffffffffffffffffffffffffff1681526020019081526020016000208190555080156107ee578273ffffffffffffffffffffffffffffffffffffffff168473ffffffffffffffffffffffffffffffffffffffff167f8c5be1e5ebec7d5bd14f71427d1e84f3dd0314c0f7b2291e5b200ac8c7c3b925846040516107e59190610be9565b60405180910390a35b50505050565b600073ffffffffffffffffffffffffffffffffffffffff168373ffffffffffffffffffffffffffffffffffffffff160361084657806002600082825461083a9190610deb565b92505081905550610919565b60008060008573ffffffffffffffffffffffffffffffffffffffff1673ffffffffffffffffffffffffffffffffffffffff168152602001908152602001600020549050818110156108d2578381836040517fe450d38c0000000000000000000000000000000000000000000000000000000081526004016108c993929190610d6a565b60405180910390fd5b8181036000808673ffffffffffffffffffffffffffffffffffffffff1673ffffffffffffffffffffffffffffffffffffffff16815260200190815260200160002081905550505b600073ffffffffffffffffffffffffffffffffffffffff168273ffffffffffffffffffffffffffffffffffffffff160361096257806002600082825403925050819055506109af565b806000808473ffffffffffffffffffffffffffffffffffffffff1673ffffffffffffffffffffffffffffffffffffffff168152602001908152602001600020600082825401925050819055505b8173ffffffffffffffffffffffffffffffffffffffff168373ffffffffffffffffffffffffffffffffffffffff167fddf252ad1be2c89b69c2b068fc378daa952ba7f163c4a11628f55a4df523b3ef83604051610a0c9190610be9565b60405180910390a3505050565b600081519050919050565b600082825260208201905092915050565b60005b83811015610a53578082015181840152602081019050610a38565b60008484015250505050565b6000601f19601f8301169050919050565b6000610a7b82610a19565b610a858185610a24565b9350610a95818560208601610a35565b610a9e81610a5f565b840191505092915050565b60006020820190508181036000830152610ac38184610a70565b905092915050565b600080fd5b600073ffffffffffffffffffffffffffffffffffffffff82169050919050565b6000610afb82610ad0565b9050919050565b610b0b81610af0565b8114610b1657600080fd5b50565b600081359050610b2881610b02565b92915050565b6000819050919050565b610b4181610b2e565b8114610b4c57600080fd5b50565b600081359050610b5e81610b38565b92915050565b60008060408385031215610b7b57610b7a610acb565b5b6000610b8985828601610b19565b9250506020610b9a85828601610b4f565b9150509250929050565b60008115159050919050565b610bb981610ba4565b82525050565b6000602082019050610bd46000830184610bb0565b92915050565b610be381610b2e565b82525050565b6000602082019050610bfe6000830184610bda565b92915050565b600080600060608486031215610c1d57610c1c610acb565b5b6000610c2b86828701610b19565b9350506020610c3c86828701610b19565b9250506040610c4d86828701610b4f565b9150509250925092565b600060ff82169050919050565b610c6d81610c57565b82525050565b6000602082019050610c886000830184610c64565b92915050565b600060208284031215610ca457610ca3610acb565b5b6000610cb284828501610b19565b91505092915050565b60008060408385031215610cd257610cd1610acb565b5b6000610ce085828601610b19565b9250506020610cf185828601610b19565b9150509250929050565b7f4e487b7100000000000000000000000000000000000000000000000000000000600052602260045260246000fd5b60006002820490506001821680610d4257607f821691505b602082108103610d5557610d54610cfb565b5b50919050565b610d6481610af0565b82525050565b6000606082019050610d7f6000830186610d5b565b610d8c6020830185610bda565b610d996040830184610bda565b949350505050565b6000602082019050610db66000830184610d5b565b92915050565b7f4e487b7100000000000000000000000000000000000000000000000000000000600052601160045260246000fd5b6000610df682610b2e565b9150610e0183610b2e565b9250828201905080821115610e1957610e18610dbc565b5b9291505056fea2646970667358221220f2e44ab57775a8c9d6dba3dac53c4e3f14a6ef6cf799895ba3837fd3f46fcfae64736f6c634300081b0033a264697066735822122000ec0b5fcd14e8b39c5c106d33553c81f72edb41771759287ba892be2f281fbc64736f6c634300081b0033",
  "linkReferences": {},
  "deployedLinkReferences": {}
}